:020000040800F2
:10000000B8410020450100086D0E000839060008BF
:10001000690E0008B10100083B1C00080000000048
:10002000000000000000000000000000B9170008F8
:10003000DD0100080000000017130008A5180008E3
:100040005F0100085F0100085F0100085F01000810
:100050005F0100085F0100085F0100085F01000800
:100060005F010008E10100085F0100085F0100086E
:100070005F0100085F0100085F0100085F010008E0
:100080005F0100085F0100085F0100085F010008D0
:100090005F0100085F0100085F0100085F010008C0
:1000A0005F0100085F0100085F0100085F010008B0
:1000B0005F0100085F0100085F0100085F010008A0
:1000C0005F0100085F0100085F0100085F01000890
:1000D0005F010008C91900085F0100085F010008FE
:1000E0005F0100085F0100085F0100085F01000870
:1000F0005F0100085F0100085F0100085F01000860
:100100005F010008391700085F0100085F0100085F
:100110005F0100085F0100085F0100085F0100083F
:100120005F0100085F0100085F0100085F0100082F
:10013000DFF80CD000F02AF8004800470D1D000839
:10014000B84100200648804706480047FEE7FEE722
:10015000FEE7FEE7FEE7FEE7FEE7FEE7FEE7FEE777
:10016000411900083101000840EA01039B0703D050
:1001700009E008C9121F08C0042AFAD203E011F8E6
:10018000013B00F8013B521EF9D27047064C074D67
:1001900006E0E06840F0010394E807009847103457
:1001A000AC42F6D3FFF7C8FF3C5B00085C5B00087D
:1001B00000BFFEE7014600BF0748406B00F0450066
:1001C0000028F9D040F2FF50034A9063104640697E
:1001D00008221040C0B27047008001407047000004
:1001E00010B5082000F038F800B31148007878B94D
:1001F00010201049486108200F49086001200C496F
:10020000087008200C49086010200A4908610AE0BB
:1002100007480078012806D108200749091D086011
:10022000022003490870082000F008F810BD000003
:10023000D70000200010014010140140014908605F
:100240007047000014040140024909680143014A53
:100250001160704710040140014600200022074B46
:100260001B6803EA0102054B14331B680B4013B1F2
:100270000AB1012000E000207047000000040140A6
:10028000002123498279002A3AD00A46126803687D
:100290009A430B461A600A1D126803689A430B1DA5
:1002A0001A60027911440A6803681A430A60184AFE
:1002B0000832126803689A43154B08331A601A1DF6
:1002C000126803689A43124B0C331A604279102A61
:1002D0000ED11A1F126803681A430D4B08331A60B7
:1002E0001A1D126803681A43094B0C331A600DE09B
:1002F0000749427911440A6803681A430A6005E015
:10030000027911440A6803689A430A607047000042
:100310000004014008B501213C2001F00DF8102037
:100320008DF8030003208DF802000820ADF80000CE
:1003300069461A4800F0E8F81020ADF80000694658
:10034000174800F0E1F80420ADF8000069461348B2
:1003500000F0DAF82020ADF800006946104800F0FF
:10036000D3F80820ADF8000069460E4800F0CCF83C
:100370004FF47F40ADF8000004208DF80300032007
:100380008DF802006946084800F0BEF808200349CD
:100390001431086003491031086008BD00080140AD
:1003A0000010014000140140000C014051B18200D6
:1003B000A2F1C042126842F001038200A2F1C042E1
:1003C000136009E08200A2F1C0421268034B1A4098
:1003D0008300A3F1C0431A6070470000FEFF0F00C6
:1003E000D0E901121143C268114302691143426905
:1003F000114382691143C2691143026A1143426A7F
:100400001143826A1143C26A1143026B11430268AD
:100410009200A2F1C0421160816808290BD10168E5
:100420008900A1F1C041096841F0400201688900DA
:10043000A1F1C0410A60416B0968426B526841EA10
:100440000211426B926841EA0221426B928941EAB1
:100450000241426B128A41EA0251426B127D41EA2B
:100460000261426B926911430268521C9200A2F130
:10047000C0421160C16AB1F5804F1BD1816B096820
:10048000826B526841EA0211826B926841EA022152
:10049000826B128A41EA0251826B127D41EA02614B
:1004A000826B9269114302689200A2F1C042C2F8C5
:1004B000041107E06FF0704201688900A1F1C041AA
:1004C000C1F804217047000030B500228B071C0FD3
:1004D0000F2303FA04F20B4B8C1053F82430934390
:1004E000084C8D1044F8253023468C1053F82430E6
:1004F0008C07240F00FA04F42343024C8D1044F8B7
:10050000253030BD080001402DE9F04102460025AC
:100510000026002000230024002791F803C00CF0DF
:100520000F0591F803C00CF0100CBCF1000F03D0C4
:1005300091F802C04CEA050591F800C0BCF1000F2B
:1005400031D0146800202BE04FF0010C0CFA00F3BE
:10055000B1F800C00CEA03069E4220D183004FF0A0
:100560000F0C0CFA03F7BC4305FA03FC4CEA040435
:1005700091F803C0BCF1280F06D14FF0010C0CFA22
:1005800000FCC2F814C00AE091F803C0BCF1480FA7
:1005900005D14FF0010C0CFA00FCC2F810C0401C51
:1005A0000828D1D31460B1F800C0BCF1FF0F34DDCE
:1005B000546800202EE000F1080C4FF0010808FA02
:1005C0000CF3B1F800C00CEA03069E4221D183006F
:1005D0004FF00F0C0CFA03F7BC4305FA03FC4CEA8E
:1005E000040491F803C0BCF1280F05D100F1080CF8
:1005F00008FA0CF8C2F8148091F803C0BCF1480F57
:1006000007D100F1080C4FF0010808FA0CF8C2F805
:100610001080401C0828CED35460BDE8F08102460B
:10062000002093680B400BB1012000E000207047D0
:10063000416170470161704720200249086000BF96
:10064000FEE70000140C014010B504462CB14FF435
:1006500080510548FFF7ECFF04E04FF48051024859
:10066000FFF7E8FF10BD0000001401402DE9F04144
:1006700006460F4614461D462B462246394630464E
:1006800000F010FA04FB05F00249098800F0BDF8FB
:10069000BDE8F081E600002001B502E00098401EB0
:1006A000009000980028F9D108BD00002DE9F04F16
:1006B000804689461646A6F120001FFA80FA1E4998
:1006C000096889881C4A1268D28801FB02F0C117A8
:1006D00000EB5171C1F3C7071748006800680AFBB7
:1006E000070B15480068C38813480068828849468C
:1006F000404600F0D7F92C2000F02CFB002416E037
:10070000002510E01BF8040080212941084020B199
:100710000A48008800F022FB03E00948008800F046
:100720001DFB681CC5B2082DECDB601CC4B2BC42CA
:10073000E6DBBDE8F08F0000E0000020E4000020D0
:10074000E600002070B504460D46002624E0304641
:10075000134909688988084412490988884205DDD7
:1007600000260F480068C088204484B220460C4907
:100770000968C98808440C490988884201DD0026B7
:1007800000242A7821463046FFF790FF6D1C04486C
:1007900000688088304486B228780028D7D170BDA0
:1007A000E0000020D8000020DA00002000B597B05B
:1007B0000121080200F0B0FD012001900420039007
:1007C0008006079000200290049005900690089003
:1007D000099008200A9010200B9000200C900E9099
:1007E0000F9010904FF480501190002012901390B1
:1007F000149001A81590169008A8FFF7F1FD0121AB
:100800000020FFF7D3FD17B000BD10B502460B4620
:1008100000242C2000F09EFA00BF03E0184600F0F0
:100820009DFA641C9442F9D310BD000008B5012163
:10083000602000F081FD03208DF8020018208DF863
:1008400003004FF48040ADF8000069465B48FFF7B5
:100850005BFE4FF40040ADF8000069465748FFF7D3
:1008600053FE0120ADF8000069465448FFF74CFEE6
:100870000220ADF8000069465048FFF745FE802091
:10088000ADF8000069464E48FFF73EFE4FF4807019
:10089000ADF8000069464A48FFF736FE4FF4007095
:1008A000ADF8000069464648FFF72EFE4FF4806021
:1008B000ADF8000069464248FFF726FE4FF400609D
:1008C000ADF8000069463E48FFF71EFE4FF4805029
:1008D000ADF8000069463A48FFF716FE4FF40050A5
:1008E000ADF8000069463648FFF70EFE4FF4804031
:1008F000ADF8000069463248FFF706FE4FF40040AD
:10090000ADF8000069462E48FFF7FEFD4FF48070F9
:10091000ADF8000069462948FFF7F6FD4FF4007076
:10092000ADF8000069462548FFF7EEFD4FF4806002
:10093000ADF8000069462148FFF7E6FD03208DF879
:10094000020018208DF803001020ADF80000694661
:100950001A48FFF7D9FD2020ADF800006946174876
:10096000FFF7D2FD8020ADF8000069461348FFF77D
:10097000CBFD4FF40060ADF8000069460F48FFF76B
:10098000C3FD10208DF8030003208DF80200022023
:10099000ADF8000069460A48FFF7B6FD10208DF853
:1009A000030003208DF802004FF48050ADF80000E2
:1009B00069460248FFF7A8FD08BD00000014014089
:1009C0000018014000B50246072A00DD00BD284896
:1009D0000270104602EBD0714910A2EB410139B907
:1009E000F020244908804FF4A0702349088006E0D5
:1009F0004FF4A0701F490880F0201F49088036205E
:100A000000F0A8F9082141EA421000F0A7F92A20D5
:100A100000F0A0F9002000F0A1F9002000F09EF9FC
:100A200014490988491EC1F3072000F097F91149BC
:100A30000978491EC8B200F091F92B2000F08AF91C
:100A4000002000F08BF9002000F088F90A4909889D
:100A5000491EC1F3072000F081F907490978491EB2
:100A6000C8B200F07BF92C2000F074F900BFADE7AC
:100A7000DC000020D8000020DA00002010B5FFF7CD
:100A8000D5FEFFF793FE0120FFF7DEFD00F04EF9E3
:100A900000F034F802480078FFF794FF10BD000022
:100AA000DC00002030B504460D462A2000F052F943
:100AB000201200F053F9E0B200F050F9A118491EDD
:100AC000C1F30F2000F04AF9A118491EC8B200F086
:100AD00045F92B2000F03EF9281200F03FF9E8B26A
:100AE00000F03CF9E918491EC1F30F2000F036F977
:100AF000E918491EC8B200F031F930BD10B5CF2059
:100B000000F028F9002000F029F9812000F026F9F2
:100B1000302000F023F9ED2000F01CF9642000F0F3
:100B20001DF9032000F01AF9122000F017F98120B6
:100B300000F014F9E82000F00DF9852000F00EF91E
:100B4000102000F00BF9782000F008F9CB2000F01D
:100B500001F9392000F002F92C2000F0FFF8002004
:100B600000F0FCF8342000F0F9F8022000F0F6F86C
:100B7000F72000F0EFF8202000F0F0F8EA2000F075
:100B8000E9F8002000F0EAF8002000F0E7F8B120D2
:100B900000F0E0F8002000F0E1F81B2000F0DEF8A3
:100BA000B62000F0D7F80A2000F0D8F8A22000F014
:100BB000D5F8C02000F0CEF8352000F0CFF8C120E5
:100BC00000F0C8F8112000F0C9F8C52000F0C2F804
:100BD000452000F0C3F8452000F0C0F8C72000F021
:100BE000B9F8A22000F0BAF8F22000F0B3F8002023
:100BF00000F0B4F8262000F0ADF8012000F0AEF8C7
:100C0000E02000F0A7F80F2000F0A8F8262000F060
:100C1000A5F8242000F0A2F80B2000F09FF80E2089
:100C200000F09CF8092000F099F8542000F096F8A4
:100C3000A82000F093F8462000F090F80C2000F077
:100C40008DF8172000F08AF8092000F087F80F20AF
:100C500000F084F8072000F081F8002000F07EF812
:100C6000E12000F077F8002000F078F8192000F07B
:100C700075F81B2000F072F8042000F06FF81020C7
:100C800000F06CF8072000F069F82A2000F066F800
:100C9000472000F063F8392000F060F8032000F0EE
:100CA0005DF8062000F05AF8062000F057F83020D2
:100CB00000F054F8382000F051F80F2000F04EF802
:100CC000362000F047F8C82000F048F82A2000F04D
:100CD00041F8002000F042F8002000F03FF800202A
:100CE00000F03CF8EF2000F039F82B2000F032F84B
:100CF000002000F033F8002000F030F8012000F070
:100D00002DF83F2000F02AF83A2000F023F8552073
:100D100000F024F8112000F01DF80348FFF7BCFC98
:100D2000292000F017F810BDFCBF020010B5022109
:100D30000748FFF77DFC40F6FF20FFF7ADFC0221DE
:100D40000348FFF777FC40F6FF20FFF7A5FC10BD36
:100D5000001801404FF0C0410880704701490880E9
:100D600070470000000002602DE9F04781468A4686
:100D700014461D462B46224651464846FFF792FE32
:100D80002C20FFF7E7FF002620E000271AE000BF35
:100D90004FF0000820200F4948610F48006800F418
:100DA0007F482020086148610B480068C0F3072095
:100DB00040EA08082020086100BF4046FFF7CEFF48
:100DC000781C87B2AF42E2DB701C86B2A642DCDB45
:100DD000BDE8F08700100140080C014001480068A0
:100DE00070470000E0000020024A1080024A118093
:100DF00070470000E4000020E60000200149086080
:100E000070470000E000002008B50121082000F034
:100E100093FA2020ADF8000010208DF80300032085
:100E20008DF8020069460F48FFF76EFB0120ADF810
:100E3000000069460B48FFF767FB0220ADF8000091
:100E400069460848FFF760FB20210648FFF7F2FBE0
:100E500001210448FFF7EEFB02210248FFF7EAFBFD
:100E600008BD0000000C014000BFFEE7704708B558
:100E70004FF4A06000F046F825208DF80000012016
:100E80008DF801008DF802008DF80300684600F02F
:100E900001F808BD70B5002100230F22C47804B307
:100EA000154C246804F4E064C4F5E064210AC1F13F
:100EB0000403CA40447804FA03F1847814402143BF
:100EC00009010E4C0678A155047804F01F05012491
:100ED000AC4005786D11AD0005F1E025C5F8004185
:100EE00009E0047804F01F050124AC40044D0678A5
:100EF000761145F8264070BD0CED00E000E400E0FE
:100F000080E100E002490143024A1160704700009D
:100F10000000FA050CED00E070B50646301D09280A
:100F200021D2DFE800F01D1A1714110E0B0805007E
:100F3000482406251AE03824062517E0282406252B
:100F400014E01824062511E0082406250EE00824E4
:100F50000E250BE018240E2508E028240E2505E0B8
:100F600038240E2502E000BF00BF00BF00BF2146AD
:100F70009B2000F0B3FB2946AB2000F0AFFB70BD17
:100F800010B5044614F1040F0EDB042C0CDC201DFC
:100F90000007010EA72000F0A1FB201D0007010E95
:100FA000A82000F09BFB01E000BF00BF10BD10B502
:100FB000044614F1040F0BDB042C09DCC4F104001B
:100FC0003022A2EB8000C1B29C2000F087FB01E040
:100FD00000BF00BF10BD10B500F044FAFFF79AF94A
:100FE00000F02EFE10BD000038B500240020009057
:100FF0008021122000F072FB08B9002038BD0B22BE
:101000000121684600F06AFA08B90020F6E79DF869
:101010000000212814D100240DE00B4A02EB440209
:101020005178094A12F8140000F058FB08B9002062
:10103000E4E7601C84B2054800788442EDDB01E0FF
:101040000020DBE70120D9E73C000020D60000208B
:1010500010B50446062C79D2DFE804F003142D46BF
:101060005F79FF21132000F039FB65210E2000F08D
:1010700035FB00212D2000F031FB00212E2000F057
:101080002DFB70E0FD21132000F028FB5A210120E8
:1010900000F024FB5C21022000F020FB65210E20E3
:1010A00000F01CFB00212D2000F018FB00212E2059
:1010B00000F014FB57E0FD21132000F00FFB582136
:1010C000012000F00BFB6021022000F007FB6521EE
:1010D0000E2000F003FB00212D2000F0FFFA00217C
:1010E0002E2000F0FBFA3EE0FD21132000F0F6FA7E
:1010F0008421012000F0F2FA4C21022000F0EEFAE7
:1011000065210E2000F0EAFA00212D2000F0E6FA19
:1011100000212E2000F0E2FA25E0FD21132000F04E
:10112000DDFA9621012000F0D9FA4021022000F0DA
:10113000D5FA65210E2000F0D1FA00212D2000F013
:10114000CDFA00212E2000F0C9FA0CE008E0FF21C2
:10115000132000F0C3FAE5210E2000F0BFFA02E0F0
:1011600000BF00BF00BF00BF10BD10B50446072C74
:1011700058D2DFE804F004111E2B38455200062136
:10118000A62000F0ABFA8021602000F0A7FA8021B1
:10119000612000F0A3FA48E02621A62000F09EFA84
:1011A0008021602000F09AFA8021612000F096FAF8
:1011B0003BE01E21A62000F091FAA021602000F063
:1011C0008DFA4021612000F089FA2EE01E21A62030
:1011D00000F084FA4021602000F080FAA021612014
:1011E00000F07CFA21E01E21A62000F077FA802191
:1011F000602000F073FAC021612000F06FFA14E063
:101200001E21A62000F06AFA6021084600F066FA66
:101210006021612000F062FA07E04621A62000F07C
:101220005DFA02E000BF00BF00BF00BF10BD2DE9A6
:10123000F84306460F4614461D46DDF82080B8F1F7
:10124000000F04D14621122000F048FA03E00621E5
:10125000122000F043FA17220121684600F03EF9FF
:101260009DF8000000EBA60000F0FF09494617209A
:1012700000F034FAC4F38701182000F02FFA192285
:101280000121684600F02AF99DF8000000EB670094
:1012900000F0FF094946192000F020FAC5F3470184
:1012A0001A2000F01BFA32220121684600F016F9DC
:1012B00004F003009DF80010084305F0010140EA26
:1012C000810006F0030140EA011007F0010140EA45
:1012D00081194946322000F001FAC4F38701292020
:1012E00000F0FCF9C5F347012C2000F0F7F92A22A1
:1012F0000121684600F0F2F804F003009DF80010A8
:10130000084305F0010140EA810949462A2000F01E
:10131000E5F9BDE8F883704729B1064A52690243EE
:10132000044B5A6104E0034A52698243014B5A61FB
:10133000704700000010024029B1064A926902433A
:10134000044B9A6104E0034A92698243014B9A611B
:10135000704700000010024030B500210022002438
:1013600000232D4D6D6805F00C0121B1042905D035
:10137000082923D105E0294D056022E0274D0560AD
:101380001FE0254D6D6805F47012234D6D6805F45E
:101390008034022505EB92421CB9214D554305606E
:1013A0000BE01D4D6D6805F400351DB11C4D554316
:1013B000056002E0194D5543056002E0174D0560D8
:1013C00000BF00BF144D6D6805F0F0010909154D0F
:1013D0006B5C0568DD4045600F4D6D6805F4E061AC
:1013E000090A104D6B5C4568DD4085600A4D6D68EB
:1013F00005F46051C90A0B4D6B5C4568DD40C56062
:10140000054D6D6805F44041890B074D6B5CC5685F
:10141000B5FBF3F5056130BD0010024000127A0003
:1014200000093D00140000202400002010B54021D8
:101430000B48FFF7FDF800F071F980210848FFF72D
:10144000F7F800F06BF940210548FFF7F3F800F0DA
:1014500065F940210248FFF7EBF800F05FF910BD95
:101460000010014008B501211020FFF765FF402062
:10147000ADF8000003208DF8020014208DF8030061
:1014800069460748FFF740F801211020FFF754FF95
:101490008020ADF8000069460148FFF735F808BD27
:1014A0000010014010B540210B48FFF7C1F800F0D3
:1014B00035F980210848FFF7BDF800F02FF94021E9
:1014C0000548FFF7B7F800F029F940210248FFF777
:1014D000AFF800F023F910BD0010014070B50546CB
:1014E0000C46164600F08EF808B9002070BD422068
:1014F00000F05CF800F0CCF818B900F0ADF800206E
:10150000F4E7304600F052F800F0C2F800F0A4F81A
:1015100000F078F808B90020E8E7432000F046F82A
:1015200000F0B6F818B900F097F80020DEE70CE0FC
:1015300000F012F82870012C02D1FFF7B3FF01E090
:10154000FFF774FF6D1C601E84B2002CF0D100F018
:1015500083F80120CAE7000070B508250024802127
:101560001148FFF767F814E06006040E40210E48AA
:10157000FFF75EF800F0D2F840210B48FFF75AF869
:1015800000F0CCF880210848FFF749F808B144F092
:1015900001042800A5F10101CDB2E5D140210248A6
:1015A000FFF746F8204670BD0010014070B50446B4
:1015B00008251BE040211248FFF73AF800F0AEF88A
:1015C00004F0800020B180210D48FFF733F803E0DC
:1015D00080210B48FFF72CF86006040E00F09EF8FF
:1015E00040210748FFF726F800F098F82800A5F1F9
:1015F0000101CDB2DED140210148FFF719F870BDDD
:101600000010014010B580211248FFF713F8402167
:101610001048FFF70FF800F081F880210D48FEF721
:10162000FEFF08B9002010BD80210A48FFF700F82E
:1016300000F074F880210748FEF7F1FF08B10020A0
:10164000F1E780210348FEF7F3FF00F067F801207F
:10165000E9E700000010014010B540210B48FEF7FB
:10166000E7FF00F05BF880210848FEF7E1FF00F09B
:1016700055F840210548FEF7DDFF00F04FF88021C6
:101680000248FEF7D7FF00F049F810BD00100140F6
:1016900010B540211048FEF7CBFF00F03FF8802145
:1016A0000D48FEF7C7FF00F039F840210A48FEF761
:1016B000C1FF00F033F880210748FEF7B0FF28B1E2
:1016C00040210548FEF7B4FF002010BD402102482C
:1016D000FEF7AEFF0120F8E70010014070B50446A8
:1016E0000D46FFF78FFF08B9002070BD4220FFF7BD
:1016F0005DFFFFF7CDFF18B9FFF7AEFF0020F4E75D
:10170000E0B2FFF753FFFFF7C3FF2846FFF74EFF96
:10171000FFF7BEFFFFF7A0FF0120E6E74FF4C87018
:1017200001E0411E88B20028FBD17047014988635F
:10173000704700000080014010B500F011F810BDA6
:1017400029B1064AD26B0243044BDA6304E0034A30
:10175000D26B8243014BDA63704700000080014086
:1017600010B51148006801280BD100200F4988608E
:1017700040F24C40C8600C20FEF71CFD0C4908707C
:1017800002E000200A4908704FF48070FFF7CEFF96
:1017900000214FF48070FFF7D3FF01200549086056
:1017A0000348007810BD00001001002000800140B7
:1017B0001401002018010020704710B500F002F855
:1017C00010BD00000CB50020019000903348006867
:1017D00040F480303149086000BF3048006800F4B0
:1017E000003000900198401C0190009818B90198B1
:1017F000B0F5A06FF1D12948006800F4003010B1B5
:101800000120009001E0002000900098012843D1C1
:101810002348006840F0100021490860084600682D
:1018200020F0030008600846006840F002000860ED
:101830001A484068194948600846406848600846A8
:10184000406840F4806048600846406820F47C109E
:1018500048600846406840F4E81048600846006860
:1018600040F08070086000BF0C48006800F0007015
:101870000028F9D00948406820F003000749486073
:101880000846406840F00200486000BF03484068D6
:1018900000F00C000828F9D10CBD00000010024037
:1018A0000020024010B500F083F800F079F8002421
:1018B0000CE0084850F8240030B1064850F82400E5
:1018C000401E044941F82400601CC4B2032CF0DB24
:1018D00010BD00001C01002030B5164800684FF410
:1018E0007A72B0FBF2F1B1F1807F01D301201DE0EB
:1018F00021F07F40401E4FF0E022506150170F2230
:10190000002807DA13071D0E0B4B00F00F04241FED
:101910001D5503E013071C0E084B1C5400BF00208C
:101920004FF0E022906107201061002008B100BF55
:10193000FEE730BD0000002018ED00E000E400E00C
:1019400010B51348006840F00100114908600846CE
:101950004068104908400E494860084600680E4932
:1019600008400B4908600846006820F480200860A1
:101970000846406820F4FE0048604FF41F0088606D
:10198000FFF71BFF4FF000600449086010BD000026
:10199000001002400000FFF8FFFFF6FE08ED00E037
:1019A00002480068401C014908607047040100209B
:1019B0000448006820B103480068401E01490860DF
:1019C000704700000001002008B540F2255107488B
:1019D00000F06FF848B1054800F026F9C0B2009059
:1019E0000121684600F0BCFA00BF08BD0038014084
:1019F00021B1828942F40052828104E082894DF64D
:101A0000FF731A408281704700B585B00121042020
:101A1000FFF792FC01218803FFF78EFC4FF4007062
:101A2000ADF8100018208DF8130003208DF8120077
:101A300004A91748FEF768FD4FF48060ADF8100068
:101A400004208DF8130004A91148FEF75DFD4FF442
:101A5000612000900020ADF80400ADF80600ADF85C
:101A60000800ADF80C000C20ADF80A0069460948E2
:101A700000F06EF8FFF7FBF9012240F2255105480E
:101A800000F041F801210348FFF7B2FF05B000BDA7
:101A9000000801400038014002460020B1F5007FF7
:101AA00000D100BF13880B400BB1012000E00020E3
:101AB000704770B50246002400230025002040F640
:101AC0006A16B14200D100BFC1F3421501F01F03F5
:101AD000012606FA03F3012D02D19689334006E070
:101AE000022D02D1168A334001E0968A33400C124F
:101AF000012606FA04F41688344013B10CB1012013
:101B000000E0002070BDF0B503460024002600254B
:101B1000002040F66A17B94200D100BF1846C1F351
:101B2000421401F01F06012707FA06F5012C01D126
:101B30000C3004E0022C01D1103000E014301AB156
:101B400007682F43076002E00768AF430760F0BDF6
:101B50002DE9F04786B005460E460024A24600BF98
:101B6000A1460027B08900B100BF2F462C8A4CF651
:101B7000FF700440F08804432C82AC894EF6F310C9
:101B80000440B08831890843718908430443AC811B
:101B9000AC8A4FF6FF400440B0890443AC8201A8F0
:101BA000FFF7DAFB1F48874202D1DDF810A001E001
:101BB000DDF80CA0A88900F4004040B10AEBCA008F
:101BC00000EB0A1031684900B0FBF1F807E00AEBBE
:101BD000CA0000EB0A1031688900B0FBF1F86420FC
:101BE000B8FBF0F004012009642101FB1089A889E9
:101BF00000F4004040B1322000EBC900B0FBF1F02E
:101C000000F00700044308E0322000EB09106421D3
:101C1000B0FBF1F000F00F0004432C8106B0BDE8EA
:101C2000F08700000038014001468888C0F30800B2
:101C30007047C1F308028280704700BFFEE70000D2
:101C40001FB501214120FFF777FB0820ADF80C00FC
:101C500004208DF80F0003208DF80E0003A916480C
:101C6000FEF752FC03210220FEF72EFC0820019013
:101C700000208DF808000C208DF8090001208DF857
:101C80000A0001A8FEF7FCFA0820FEF7DDFA4FF47F
:101C9000C060FFF737F909208DF8000000208DF8AB
:101CA000010003208DF8020001208DF80300684632
:101CB000FFF7F0F81FBD00000010014002E008C867
:101CC000121F08C1002AFAD170477047002001E0B6
:101CD00001C1121F002AFBD17047000070B50446F5
:101CE0000D460BE014F8011B0748FFF7A2FF00BFE9
:101CF00080210548FFF7D0FE0028F9D02800A5F183
:101D00000105EFD170BD00000038014008B5002585
:101D10000024FFF779FEFFF777F8FFF7DDFDFFF707
:101D20005AF90DE0681CC5B2052D09DD20204D498A
:101D30000860012008600220091F086000BFFEE75C
:101D4000FFF752F90128EDD14749C87CFFF70DFA9A
:101D50004549C87BFFF77CF9434991F91000FFF72B
:101D60000FF9414991F91100FFF7D6F83E4991F971
:101D70001200FFF71CF93C49C87CFFF7F6F93A4816
:101D80000078394E00903389F288B1887088FFF767
:101D90004EFA002035490870FEF770FE0320FEF76A
:101DA00011FE3348FFF72AF800214FF47840FFF77F
:101DB0001BF8304803883048028800210846FEF7A7
:101DC00055FCFFF70BF800262CA13046FEF7BAFCB5
:101DD00020202449091F0860012008600220091DF5
:101DE0000860002400E0641C2B488442FBD30024DC
:101DF00020201C49091F086001200860022008609B
:101E00002EE0182C21D200BF184800780228FBD100
:101E100000BF042021490860202021494861086151
:101E200004201E49091F086020201D4948610861DF
:101E300000BF0D4E3389F288B1897089FEF794FF97
:101E400000200A490870641C0AE0164C00E0641E79
:101E5000002CFCD1044A1189D08800F025F800BF7D
:101E6000CFE70000140C014028000020D70000201C
:101E7000E8000020DA000020D80000204F56373755
:101E8000323520696E697469616C697A6520737591
:101E9000636365737321000080841E001408014091
:101EA0000010014070700600F0B5ADF2045D06460A
:101EB0000F4627480078022845D100BF0420254955
:101EC0000860202024494861086104202149091F35
:101ED0000860202020494861086100BF00252DE0EE
:101EE000002423E000BF002001A921F814002020D5
:101EF000194948611948006800F47F4001A921F898
:101F00001400202014490861486101A830F8140029
:101F100012490968C1F30721084301A921F81400F7
:101F200020200D49086100BF601C84B2BC42D9DB8F
:101F3000610001A8FFF7D2FE681C85B2B542CFDB75
:101F400000200349087000200DF2045DF0BD000080
:101F5000D70000201408014000100140080C014087
:101F600038B505460C460A490094CA882B460868CD
:101F7000802100F00FF80649C9880819C11700EB45
:101F80005161C911A0EBC111014AD18038BD0000D7
:101F9000280100202DE9F04705460E4614461F464D
:101FA000DDF8208004EB0800B0420FDD301B1FFA83
:101FB00080F928194A463946FEF7D6F8A8EB0902F7
:101FC00007EB09012846FEF7CFF804E0281942463E
:101FD0003946FEF7C9F8BDE8F087000000000000B0
:101FE00000000000000000000000000000181818A9
:101FF00018181808000818000000000000342424F5
:102000002400000000000000000000000000162472
:102010007F2424247E2424000000000000083E6861
:1020200048681C1612127C10100000000061D29645
:10203000740810162949C6000000000000003C6426
:102040006438724ACE467F0000000000001818185D
:102050001800000000000000000000000004081844
:1020600010303030301010180C0400000020100820
:10207000080C0404040C08181020000000080A349E
:102080001C6A0800000000000000000000000000C2
:102090001818187F18181800000000000000000031
:1020A00000000000001818083000000000000000C8
:1020B0000000003C000000000000000000000000E4
:1020C00000000000001818000000000000020604D4
:1020D0000C080810102020400000000000003C66A2
:1020E00042475B7342663C00000000000000187825
:1020F0004808080808087E000000000000003C4670
:102100000606040810207E000000000000007C0687
:1021100006043C0202067C000000000000000C1CCB
:1021200014246444FF0404000000000000007E60EA
:1021300060607E0202067C000000000000001E308D
:102140006048764242623C000000000000007E02CF
:1021500006040C08181030000000000000003C626B
:1021600042361C6642423C000000000000003C6613
:102170004242661A020478000000000000000000DD
:1021800018180000001818000000000000000000EF
:1021900018180000001818083000000000000000A7
:1021A00004183060100C0600000000000000000061
:1021B00000007E007E000000000000000000000023
:1021C000301804060C1020000000000000301C062F
:1021D000060618100010100000000000001C22412C
:1021E00041DDB5A5A5AF94C0403C00000000181C1F
:1021F000342426627E43C1000000000000007C46BB
:1022000042467C4242427C000000000000001E204A
:102210004040404040603E000000000000007C461E
:1022200042434343424678000000000000007E60C5
:1022300060607E6060607E000000000000007E60E4
:1022400060607E60606060000000000000001E6052
:102250004040CE4242623E00000000000000424288
:1022600042427E42424242000000000000007E18CE
:102270001818181818187E000000000000007C04D0
:1022800004040404044478000000000000004244F8
:10229000485070584C4442000000000000002020CC
:1022A0002020202020203E00000000000000626668
:1022B000675F5B5BC1C1C10000000000000062629B
:1022C00072525A4A4E4646000000000000003C622E
:1022D00043C3C3C343623C000000000000007C46CF
:1022E00042424678404040000000000000003C624E
:1022F00043C3C3C343623C180F00000000007C6668
:1023000062667C6C646662000000000000003E6053
:1023100040601C0602027C000000000000007F18E4
:102320001818181818181800000000000000424281
:102330004242424242623C00000000000000C143B1
:1023400042622624341C1800000000000000C1C1B5
:1023500041495B5B76666600000000000000436652
:102360003418181C2466C300000000000000C1429D
:1023700066341C18181818000000000000007E02C7
:10238000040C181020607E0000000000001C1010DB
:102390001010101010101010101C00000040202011
:1023A000101008080C04060200000000003C0C0C91
:1023B0000C0C0C0C0C0C0C0C0C3C00000000181C41
:1023C0002462000000000000000000000000000087
:1023D000000000000000000000FF000000201000CE
:1023E00000000000000000000000000000000000ED
:1023F0003C06023E42467A00000000000040404099
:102400005C62424242427C0000000000000000008A
:102410001E20604060203E0000000000000202021A
:102420003E62424242663A000000000000000000A6
:102430003C62427E40603E0000000000000F181029
:10244000107E1010101010000000000000000000AE
:102450003F66426658403E43423C000000404040D8
:102460005C62424242424200000000000018180034
:102470007808080808087E000000000000040C002E
:102480007C040404040404040C7800000060606010
:10249000626C7870686462000000000000780808D0
:1024A0000808080808087E0000000000000000007E
:1024B000764B4B4B4B4B4B000000000000000000E4
:1024C0005C62424242424200000000000000000004
:1024D0003C62424342623C000000000000000000F9
:1024E0005C62424242427C404040000000000000EA
:1024F0003E62424242663A020202000000000000D0
:102500006E72636060606000000000000000000008
:102510003E20203C06027C0000000000000010105D
:10252000FE10101010101E0000000000000000003F
:102530004242424242663A000000000000000000B1
:102540004342662434181800000000000000000018
:10255000C1C15B5A5E66660000000000000000001A
:1025600062261C181C26620000000000000000000B
:1025700043426624341C181830E0000000000000BC
:102580007E060C1810207E0000000000000E1810BF
:102590001010307010101010180E000008080808F5
:1025A000080808080808080808080000003018088B
:1025B00008080C0E08080808183000000000000089
:1025C0000000714B06000000000000000000000049
:1025D00000000000000000000000000000000000FB
:1025E00000000000000000000000000000000000EB
:1025F00000000000000000000000000000000000DB
:1026000000000000038001800180018001800180C2
:1026100001800180018001800000000003C003C030
:1026200000000000000000000000000000000000AA
:10263000000000000E700E700E700C3000000000E4
:10264000000000000000000000000000000000008A
:10265000000000000000000000000000000000007A
:102660000000000000000618063806307FFE0C301F
:102670000C300C300C307FFE0C601C601860186051
:10268000000000000000000000000000000000004A
:10269000000000C000C00FF83CC831C031803D8050
:1026A0001F8003F001F8031C030C031C3FF83FE0FC
:1026B000070006000000000000000000000000000D
:1026C00000001C007E0E630C631863307E6000C047
:1026D00001800300077C0EE61CC618C630C6607C6D
:1026E00000000000000000000000000000000000EA
:1026F000000000000FE01CF0387038701C601FC034
:102700000F003F8C71CC60EC607C70383CFC1FCEBD
:1027100000000000000000000000000000000000B9
:102720000000000003C00180018001800000000063
:102730000000000000000000000000000000000099
:102740000000000000000000000000000000000089
:102750000000003000E001C0018003000700060017
:1027600006000E000E000E000E000600070003001B
:10277000038001C000E00030000000000000000005
:1027800000000C0006000380018001C000E0006032
:1027900000600070007000700060006000E000C029
:1027A0000180038006000C00000000000000000013
:1027B00000000000018011881DB803C007E03DBC87
:1027C00001880180000000000000000000000000FF
:1027D00000000000000000000000000000000000F9
:1027E0000000000000000000000001800180018066
:1027F000018001807FFE0180018001800180000056
:1028000000000000000000000000000000000000C8
:1028100000000000000000000000000000000000B8
:102820000000000000000000000003C003C001C061
:1028300001C003801F000000000000000000000035
:102840000000000000000000000000000000000088
:10285000000000000FF00000000000000000000079
:102860000000000000000000000000000000000068
:102870000000000000000000000000000000000058
:102880000000000000000000000003C003C003C0FF
:102890000000000000000000000000000000000038
:1028A00000000000001800380030006000E000C0A8
:1028B00001C001800300030006000E000C001C0094
:1028C00018003000000000000000000000000000C0
:1028D0000000000001800FF01C38381C301C707E96
:1028E00070EE738E7E0E7C0C300C381C1E780FE060
:1028F00000000000000000000000000000000000D8
:1029000000000000000007C01FC039C001C001C0A6
:1029100001C001C001C001C001C001C03FFC3FFCBB
:1029200000000000000000000000000000000000A7
:102930000000000003801FF018380038001800382D
:102940000038007001E0038007001C003FFC3FFCE2
:102950000000000000000000000000000000000077
:102960000000000007801FF00038003800380030F9
:1029700007E007F00038001C001C001820F83FE0BA
:102980000000000000000000000000000000000047
:1029900000000000000000F001B0033007300E30EE
:1029A0001C30383070307FFE7FFE00300030003049
:1029B0000000000000000000000000000000000017
:1029C0000000000000001FF8180018001800180090
:1029D0001FE000F8001C001C001C003800F01FC0A5
:1029E00000000000000000000000000000000000E7
:1029F00000000000000003F80F001C001800300069
:102A000037F83C3C300C300C380C381C1E380FF0BA
:102A100000000000000000000000000000000000B6
:102A20000000000000003FFC001C0018003800708F
:102A3000006000E001C001800380070006000E0076
:102A40000000000000000000000000000000000086
:102A50000000000003C01FF8381C381C381C1C384C
:102A60000FF007F01C78381C300C381C3C380FF085
:102A70000000000000000000000000000000000056
:102A80000000000003801FF03838301C701C700CF0
:102A9000380C1FFC0FCC001C001800701FE01F80BA
:102AA0000000000000000000000000000000000026
:102AB00000000000000000000000000003C003C090
:102AC0000180000000000000000003C003C003C03C
:102AD00000000000000000000000000000000000F6
:102AE00000000000000000000000000003C003C060
:102AF0000180000000000000000003C003C001C00E
:102B000001C003800F000000000000000000000072
:102B100000000000000000000000003800F001C0CC
:102B200007001E0038000E00078001C00070003052
:102B30000000000000000000000000000000000095
:102B40000000000000000000000000000000000085
:102B50003FFC000000003FFC3FFC000000000000C4
:102B60000000000000000000000000000000000065
:102B7000000000000000000000001C000F000380A7
:102B800001E00078001C007001E003800E000C00E2
:102B90000000000000000000000000000000000035
:102BA000000000000FC000F0003800380038003886
:102BB00003F003800300030000000000078007808B
:102BC0000000000000000000000000000000000005
:102BD000000000E007F80C0C18063006700363F3E1
:102BE0006633C673CC63CC62CC66CCE6C7FCE0002F
:102BF0006000700038101FF00000000000000000AE
:102C000000000000000003C007E006E00E700E7038
:102C10000C301C3818183FFC3FFC700E600EE007AB
:102C200000000000000000000000000000000000A4
:102C30000000000000003FF03838381C381C3838DD
:102C40003FF03FF8381C380C380C381C3FF83FE098
:102C50000000000000000000000000000000000074
:102C60000000000000E007FC1E04380038003000BF
:102C7000700070007000300038003C001F9C07FCA2
:102C80000000000000000000000000000000000044
:102C90000000000000003FF03078301C300C300E97
:102CA000300E300E300E300E301C30383FF03FC04A
:102CB0000000000000000000000000000000000014
:102CC0000000000000001FF818001800180018008D
:102CD0001FF81FF818001800180018001FF81FF838
:102CE00000000000000000000000000000000000E4
:102CF0000000000000001FF818001800180018005D
:102D00001FF81FF818001800180018001800180005
:102D100000000000000000000000000000000000B3
:102D20000000000000F007FC1E04380030007000B6
:102D3000700070FC700C700C300C380C1F1C07FC01
:102D40000000000000000000000000000000000083
:102D5000000000000000300C300C300C300C300C47
:102D60003FFC3FFC300C300C300C300C300C300C85
:102D70000000000000000000000000000000000053
:102D80000000000000003FFC018001800180018004
:102D90000180018001800180018001803FFC3FFCB7
:102DA0000000000000000000000000000000000023
:102DB0000000000000001FF0003000300030003044
:102DC0000030003000300030003000701DE01FC0C7
:102DD00000000000000000000000000000000000F3
:102DE000000000000000381C387038E039C03B801B
:102DF0003F003F003B8039C038E038703838381C1D
:102E000000000000000000000000000000000000C2
:102E10000000000000001C001C001C001C001C0026
:102E20001C001C001C001C001C001C001FFC1FFCC4
:102E30000000000000000000000000000000000092
:102E4000000000000000381C7C3C6C3E6E6E666E1C
:102E500066CE63C6638661866006600660066006AD
:102E60000000000000000000000000000000000062
:102E70000000000000003C0C3C0C3E0C360C330CF7
:102E8000338C318C31CC30EC306C307C303C301CAD
:102E90000000000000000000000000000000000032
:102EA0000000000001C00FF81C3C381C700E700EB2
:102EB00060066006700E700E700C381C1E780FE0F5
:102EC0000000000000000000000000000000000002
:102ED0000000000000003FF0383C381C380C380C73
:102EE000381C38783FE038003800380038003800A7
:102EF00000000000000000000000000000000000D2
:102F00000000000001C00FF81C3C381C700E700E51
:102F100060066006700E700E700C381C1E780FE094
:102F2000018001C000FF003C000000000000000024
:102F30000000000000003FF03838381838183838E2
:102F400038F03FC038E0387038383838381C380E20
:102F50000000000000000000000000000000000071
:102F60000000000001E00FF83800380038003C0095
:102F70001F8003F00078001C001C001C38783FE024
:102F80000000000000000000000000000000000041
:102F90000000000000007FFE0180018001800180B0
:102FA0000180018001800180018001800180018019
:102FB0000000000000000000000000000000000011
:102FC000000000000000300C300C300C300C300CD5
:102FD000300C300C300C300C300C381C1C380FF01E
:102FE00000000000000000000000000000000000E1
:102FF000000000000000E006700E700E381C381C47
:103000001C181C380C300E70066007E003C003C0AB
:1030100000000000000000000000000000000000B0
:103020000000000000006006600660066006618621
:10303000638673C673CE766C366C3C3C3C3C381C65
:103040000000000000000000000000000000000080
:10305000000000000000301C38181C380E7007E01B
:1030600003C003C007E00E701C381838381C700EFF
:103070000000000000000000000000000000000050
:10308000000000000000700E700C381C1C380E7020
:10309000066007E003C0018001800180018001809B
:1030A0000000000000000000000000000000000020
:1030B0000000000000003FFC001C0038007000E031
:1030C00001C0038007000E000C0018003FFC3FFC0D
:1030D00000000000000000000000000000000000F0
:1030E000000007F007F006000600060006000600D4
:1030F00006000600060006000600060006000600A0
:1031000006000600060007F00000000000000000B6
:103110000000000018001C000C000600070003005F
:103120000380018001C000C00060007000300038E2
:103130000018000C0000000000000000000000006B
:1031400000000FE00FE000600060006000600060C1
:10315000006000600060006000600060006000606F
:103160000060006000600FE0000000000000000050
:1031700000000000000003C006C006600C301818F4
:10318000301C0000000000000000000000000000F3
:10319000000000000000000000000000000000002F
:1031A000000000000000000000000000000000001F
:1031B000000000000000000000000000000000000F
:1031C000000000000000FFFF000000000000000001
:1031D000000000001E00038000000000000000004E
:1031E00000000000000000000000000000000000DF
:1031F00000000000000000000000000000000000CF
:103200000000000000000000000000001FF0103867
:10321000001C001C0FFC1C1C381C381C3CFC1FDC58
:10322000000000000000000000000000000000009E
:103230000000000038003800380038003BF83E1C21
:103240003C1C380C380C380C380C381C3C781FE00F
:10325000000000000000000000000000000000006E
:1032600000000000000000000000000007F80E0051
:103270001C0038003800380038001C000F1807F810
:10328000000000000000000000000000000000003E
:1032900000000000001C001C001C001C0FFC1C1C7B
:1032A000381C301C301C301C301C383C1CFC0F9C63
:1032B000000000000000000000000000000000000E
:1032C0000000000000000000000000000FF01C38AB
:1032D000381C300C3FFC3000300038001E0C07FC5E
:1032E00000000000000000000000000000000000DE
:1032F0000000003C01FE03800300030003007FFC8C
:103300007FFC03000300030003000300030003002D
:1033100000000000000000000000000000000000AD
:103320000000000000000000000000000FFE1C383C
:103330003818381818381FF03B8030003FF01FFC59
:10334000300E700E381C1FF8000000000000000056
:103350000000000038003800380038003BF83E38E4
:103360003C1C381C381C381C381C381C381C381CB9
:10337000000000000000000000000000000000004D
:103380000000018003C003C0000000001FC001C096
:1033900001C001C001C001C001C001C001C03FFCAB
:1033A000000000000000000000000000000000001D
:1033B0000000002000700070000000003FF000706E
:1033C000007000700070007000700070007000707D
:1033D0000070007020E03FC000000000000000000E
:1033E000000000001800180018001800183C1870A1
:1033F00018E01B801F001B8019E018701838181C7B
:1034000000000000000000000000000000000000BC
:10341000000000001FC001C001C001C001C001C008
:1034200001C001C001C001C001C001C001C03FFC1A
:10343000000000000000000000000000000000008C
:103440000000000000000000000000006F3C79EE6A
:1034500071CE718E718E718E718E718E718E718E34
:10346000000000000000000000000000000000005C
:103470000000000000000000000000003BF83E38A3
:103480003C1C381C381C381C381C381C381C381C98
:10349000000000000000000000000000000000002C
:1034A0000000000000000000000000000FF01C3CC5
:1034B000381C700E700E700E700C381C1E780FE0E9
:1034C00000000000000000000000000000000000FC
:1034D0000000000000000000000000003BF83E1C5F
:1034E0003C1C380C380C380C380C381C3C783FE04D
:1034F00038003800380038000000000000000000EC
:103500000000000000000000000000000FFC1C1C78
:10351000381C301C301C301C301C383C1CFC0F9CF0
:10352000001C001C001C001C00000000000000002B
:1035300000000000000000000000000019F81F1C3F
:103540001C0C180E1800180018001800180018009D
:10355000000000000000000000000000000000006B
:103560000000000000000000000000000FF81C0038
:1035700018001E000FC001F80018001818381FF0BE
:10358000000000000000000000000000000000003B
:103590000000000000000600060006007FFC060098
:1035A000060006000600060006000700078401FC6E
:1035B000000000000000000000000000000000000B
:1035C000000000000000000000000000381C381C53
:1035D000381C381C381C381C381C383C1CFC0FDCD0
:1035E00000000000000000000000000000000000DB
:1035F000000000000000000000000000700C381CFB
:1036000038181C380C300E70066007E003C003C089
:1036100000000000000000000000000000000000AA
:1036200000000000000000000000000060066006CE
:103630006186738E73CC33CC366C366C3C3C3C3834
:10364000000000000000000000000000000000007A
:10365000000000000000000000000000381C1C38C2
:103660000E7007E003C003C007E00E701C38381E60
:10367000000000000000000000000000000000004A
:10368000000000000000000000000000700C381C6A
:1036900038181C380C300E70066007E003C003C0F9
:1036A000038007000E007C00000000000000000006
:1036B0000000000000000000000000001FF80038BB
:1036C000007000E001C0038007000C001FFC3FFCFD
:1036D00000000000000000000000000000000000EA
:1036E0000000007801F803800380038003800380DA
:1036F00003003F003E00030003800380038003803B
:103700000380038001C000F8000000000000018079
:1037100001800180018001800180018001800180A1
:103720000180018001800180018001800180018091
:103730000180018001800180000000000000000085
:1037400000001E001F80018001C001C001C001C037
:1037500000C000FC007C00C001C001C001C001C06D
:1037600001C001C003801F00000000000000000035
:103770000000000000000000000000000000000049
:103780001C003F0671CE60FC00000000000000003D
:103790000000000000000000000000000000000029
:1037A0000000000000000000000000000000000019
:1037B0000000000000000000000000000000000009
:1037C00000000000000000000000000000000000F9
:1037D00000000000000000000000000000000000E9
:1037E00000000000000000000000000000000000D9
:1037F00000000000000000000000000000000000C9
:10380000000000000000000000000000003C00007C
:103810003C00003C00003C00003C00003C00003C40
:1038200000003C00003C00003C00003C00003C006C
:10383000003C00003C00000000000000003C0000D4
:103840007E00003C000000000000000000000000BE
:103850000000000000000000000000000000000068
:1038600000000000000000000000000003C3E003AF
:10387000C3E003C3C003C3C003C3C003C3C003C1C9
:10388000C000000000000000000000000000000078
:103890000000000000000000000000000000000028
:1038A0000000000000000000000000000000000018
:1038B0000000000000000000000000000000000008
:1038C00000000000000000000000000000000000F8
:1038D000000001E0E001C0E001C0E001C0E03FFF06
:1038E000FE3FFFFE03C1C00381C00381C00381C04E
:1038F0007FFFFC7FFFFC07838007038007038007AF
:1039000003800707800000000000000000000000A6
:1039100000000000000000000000000000000000A7
:10392000000000000000000000000700000F000081
:103930000E0001FFF007FFF01F0E001E1E001E1CF0
:10394000001E1C000FDC0007FC0000FF80003FF0A1
:103950000038F800387800783C0070783071F83F13
:10396000FFE01FFF0000E00000E00000E0000000BA
:103970000000000000000000000000000000000047
:103980000000000000000000000000000F800F3F5A
:10399000E01E78703C7070707070E07071C03FE332
:1039A000801FC700000E00001C0000780000F0F02F
:1039B00001E7FC03CF0E078E0E0F0E0E1E0E0E3CFF
:1039C00007BC7003F80000000000000000000000C9
:1039D00000000000000000000000000000000000E7
:1039E00000000000000000000000000000000001D6
:1039F000FF0007FF800F03C00F03C00F03C00F07B6
:103A000080079F0003FE0003F0000FF83C3E7C3C63
:103A10003C1F3C780FF87807F87C01F03E03F81F54
:103A2000FFFC07FE1F000000000000000000000077
:103A30000000000000000000000000000000000086
:103A4000000000000000000000000000003E000038
:103A50003C00003C00003C00003C00003C00003CFE
:103A60000000000000000000000000000000000056
:103A70000000000000000000000000000000000046
:103A80000000000000000000000000000000000036
:103A90000000000000000000000000000000000026
:103AA0000000000000000000000000800001C000D5
:103AB0000780000F00001E00003C0000780000F0AE
:103AC0000000E00001E00001E00001C00003C000D0
:103AD00003C00001C00001E00001E00000F00000B0
:103AE000F000007800003C00001E00000F000007FE
:103AF000C00001C000000000000000000000000045
:103B000000000000000000000000000003C00001F1
:103B1000E00000F000007C00003E00001E00000FEE
:103B2000000007800007800003800003C00003C07E
:103B30000003C00003C0000380000780000780006E
:103B40000F00001E00003C0000780000F00001E0C3
:103B500000038000000000000000000000000000E2
:103B6000000000000000000000000000001C000039
:103B70001C000018000F18F007DBE0007F0000FFBA
:103B80000007DBE00E1870001800001C00001C008D
:103B90000000000000000000000000000000000025
:103BA0000000000000000000000000000000000015
:103BB0000000000000000000000000000000000005
:103BC00000000000000000000000000000000000F5
:103BD0000000000000000000000000003C00003C6D
:103BE00000003C00003C00003C00003C003FFFFCAB
:103BF0003FFFFC003C00003C00003C00003C00009B
:103C00003C00000000000000000000000000000078
:103C100000000000000000000000000000000000A4
:103C20000000000000000000000000000000000094
:103C30000000000000000000000000000000000084
:103C40000000000000000000000000000000000074
:103C5000000000000000000000007C00007E00006A
:103C60007E00003E00001E00003C0000F80007E05F
:103C70000004000000000000000000000000000040
:103C80000000000000000000000000000000000034
:103C90000000000000000000000000000000000024
:103CA0000000000000000000000000000003FFE032
:103CB00003FFE00000000000000000000000000022
:103CC00000000000000000000000000000000000F4
:103CD00000000000000000000000000000000000E4
:103CE00000000000000000000000000000000000D4
:103CF00000000000000000000000000000000000C4
:103D000000000000000000000000000000000000B3
:103D1000000000000000000000007C0000FE000029
:103D2000FE00007E00000000000000000000000017
:103D30000000000000000000000000000000000083
:103D400000000000000000000000000000007800FB
:103D500000F00000E00001E00003C0000380000765
:103D600080000F00000E00001E00003C0000380024
:103D700000700000F00000E00001C00003C0000778
:103D800080000700000F00001E00001C0000000063
:103D90000000000000000000000000000000000023
:103DA0000000000000000000000000000000000013
:103DB000000001FFC007FFE00F00F01E00781E00AA
:103DC0003C3C00FC3C07FC3C1FBC3C7C1C3DF03CEC
:103DD0003FC03C3F003C1E00381E00780F80F007BB
:103DE000FFE001FF80000000000000000000000074
:103DF00000000000000000000000000000000000C3
:103E000000000000000000000000000000000000B2
:103E10000000007E0003FE001FDE000E1E00001EDC
:103E200000001E00001E00001E00001E00001E00FC
:103E3000001E00001E00001E00001E00001E000FDD
:103E4000FFF80FFFF8000000000000000000000075
:103E50000000000000000000000000000000000062
:103E60000000000000000000000000000000000052
:103E7000000003FF800FFFE00E01F00000F00000E3
:103E8000F00000F00000F00001E00003C0000F802F
:103E9000003E00007C0001F00003C0000F80001F06
:103EA000FFFC1FFFFC0000000000000000000000FD
:103EB0000000000000000000000000000000000002
:103EC00000000000000000000000000000000000F2
:103ED00000000FFF800FFFE00001E00000F0000095
:103EE000F00001E00003C001FF0001FFC00003F08B
:103EF0000000780000780000780000780001F00FE2
:103F0000FFC00FFF000000000000000000000000E4
:103F100000000000000000000000000000000000A1
:103F20000000000000000000000000000000000091
:103F30000000000FC0001FC0003FC0007BC000F3A6
:103F4000C001E3C003C3C00783C00F03C01C03C08C
:103F50003803C07FFFFE7FFFFE0003C00003C000E8
:103F600003C00003C00000000000000000000000CB
:103F70000000000000000000000000000000000041
:103F80000000000000000000000000000000000031
:103F900000000FFFE00FFFE00F00000F00000F0018
:103FA000000F00000F00000FFF800FFFE00000F087
:103FB0000000780000780000780000F00003E00FB7
:103FC000FFC00FFE00000000000000000000000025
:103FD00000000000000000000000000000000000E1
:103FE00000000000000000000000000000000000D1
:103FF0000000003FF001FFF003E0000780000F0029
:10400000001E00001E1F001FFFE01FC1F81E0078E9
:104010001E003C1E003C1E003C0F00780F80F8077D
:10402000FFE001FF80000000000000000000000031
:104030000000000000000000000000000000000080
:104040000000000000000000000000000000000070
:1040500000001FFFFC1FFFFC0000780000F00000C4
:10406000E00001E00003C0000780000F00000F0027
:10407000001E00003C0000780000F00001F000018C
:10408000E00003C00000000000000000000000008D
:104090000000000000000000000000000000000020
:1040A0000000000000000000000000000000000010
:1040B000000003FFE00FE3F00F00781E00781E0001
:1040C000780F00F007E3E001FF8001FF8007E7E0E1
:1040D0000F00F81E00781E003C1E007C1F00F80F29
:1040E000FFF003FFC000000000000000000000001F
:1040F00000000000000000000000000000000000C0
:1041000000000000000000000000000000000000AF
:10411000000003FF800FC7E01E00F01E00783C0087
:10412000783C00783C00381E00780FEFF807FFB8A5
:104130000000780000780000F00001E0000FC00FE0
:10414000FF000FF000000000000000000000000071
:10415000000000000000000000000000000000005F
:10416000000000000000000000000000000000004F
:104170000000000000000000000000000000007EC1
:1041800000007E00007E000018000000000000001B
:10419000000000000000000000003C00007E000065
:1041A0007E00003E00000000000000000000000053
:1041B00000000000000000000000000000000000FF
:1041C00000000000000000000000000000000000EF
:1041D0000000000000000000000000000000007E61
:1041E00000007E00007E00001800000000000000BB
:1041F000000000000000000000003E00007E000003
:104200007F00001F00001E00001E0000FC0007F0E1
:10421000000400000000000000000000000000009A
:10422000000000000000000000000000000000008E
:1042300000000000000000000000400001E0000756
:10424000C0001F00007E0001F80003E0000F8000A6
:104250000F800003E00000F800003E00000F800027
:1042600003E00000E000000000000000000000008B
:10427000000000000000000000000000000000003E
:10428000000000000000000000000000000000002E
:10429000000000000000000000000000000000001E
:1042A000000000000000001FFFF8000000000000F8
:1042B0000000001FFFF81FFFF800000000000000D2
:1042C00000000000000000000000000000000000EE
:1042D00000000000000000000000000000000000DE
:1042E00000000000000000000000000000000000CE
:1042F000000000000000000000000007800003E054
:104300000000F800003E00000F800003E00000F80D
:104310000001F00007C0001F00007C0001F0000752
:10432000C0000300000000000000000000000000CA
:10433000000000000000000000000000000000007D
:1043400000000000000000000000000001C00001AB
:10435000FE00007F800007C00001E00000F00000C8
:10436000F00001F00003E0007FC0007E000070005C
:1043700000700000700000000000000000F8000065
:10438000F80000F80000000000000000000000003D
:10439000000000000000000000000000000000001D
:1043A000000000000000000000000000001F80006E
:1043B000FFF003C07807801C0E000E1C000E3C00AE
:1043C0000F383FC778FFC770E3C771C3C7F3C38710
:1043D000E3C387E3878EE3878EE3CF8EE3FFFC7131
:1043E000F9F07000007000003800003C00000F0180
:1043F000C007FFC000000000000000000000000037
:1044000000000000000000000000000000000000AC
:104410000000007E00007F0000FF0000E78001E751
:104420008003C3C003C3C00781E00781E00F00F031
:104430000F00F81FFFF81FFFFC3C003C3C001E78FB
:10444000001EF0000F00000000000000000000004F
:10445000000000000000000000000000000000005C
:10446000000000000000000000000000000000004C
:1044700000001FFFC01FFFF01E00F01E00781E008E
:10448000781E00F01E01F01FFFC01FFFE01E01F8A4
:104490001E00781E003C1E003C1E00781E00F81F07
:1044A000FFE01FFF0000000000000000000000000F
:1044B00000000000000000000000000000000000FC
:1044C00000000000000000000000000000000000EC
:1044D000000000FFF803FFF807C0000F00001E00F7
:1044E000001E00003C00003C00003C00003C0000BE
:1044F0003C00003E00001E00000F00000FC008033B
:10450000FFF800FFF80000000000000000000000BD
:10451000000000000000000000000000000000009B
:10452000000000000000000000000000000000008B
:1045300000003FFF003FFFE03C01F03C00783C0002
:104540003C3C003C3C003C3C001E3C001E3C001E31
:104550003C003C3C003C3C00783C00F83C07E03F21
:10456000FFC03FFC00000000000000000000000051
:10457000000000000000000000000000000000003B
:10458000000000000000000000000000000000002B
:1045900000000FFFF00FFFF00F00000F00000F00F2
:1045A000000F00000F00000FFFF00FFFF00F0000E2
:1045B0000F00000F00000F00000F00000F00000FA1
:1045C000FFF00FFFF00000000000000000000000FE
:1045D00000000000000000000000000000000000DB
:1045E00000000000000000000000000000000000CB
:1045F00000000FFFF00FFFF00F00000F00000F0092
:10460000000F00000F00000FFFF00FFFF00F000081
:104610000F00000F00000F00000F00000F00000F40
:1046200000000F000000000000000000000000007B
:10463000000000000000000000000000000000007A
:10464000000000000000000000000000000000006A
:10465000000000FFFC03FFFC0FC0041F00001E0051
:10466000003C00003C0000780FFC780FFC78003C18
:104670003C003C3C003C3E003C1F003C0FC03C0367
:10468000FFFC00FFF8000000000000000000000038
:10469000000000000000000000000000000000001A
:1046A000000000000000000000000000000000000A
:1046B00000003C003C3C003C3C003C3C003C3C00DE
:1046C0003C3C003C3C003C3FFFFC3FFFFC3C003CD2
:1046D0003C003C3C003C3C003C3C003C3C003C3C46
:1046E000003C3C003C000000000000000000000016
:1046F00000000000000000000000000000000000BA
:1047000000000000000000000000000000000000A9
:1047100000000FFFF80FFFF8003C00003C00003CD9
:1047200000003C00003C00003C00003C00003C005D
:10473000003C00003C00003C00003C00003C000F3E
:10474000FFF80FFFF800000000000000000000006C
:104750000000000000000000000000000000000059
:104760000000000000000000000000000000000049
:1047700000000FFFE00FFFE00001E00001E000019A
:10478000E00001E00001E00001E00001E00001E0E4
:104790000001E00001E00001E00003C00C07C00FD1
:1047A000FF8007FE00000000000000000000000085
:1047B00000000000000000000000000000000000F9
:1047C00000000000000000000000000000000000E9
:1047D00000001E00781E01F01E03C01E07801E1F71
:1047E000001E3C001E78001EF0001FF0001EF800A6
:1047F0001E3C001E1E001E0F801E07C01E01E01E74
:1048000000F81E007C000000000000000000000016
:104810000000000000000000000000000000000098
:104820000000000000000000000000000000000088
:1048300000000780000780000780000780000780D5
:1048400000078000078000078000078000078000C5
:1048500007800007800007800007800007800007AE
:10486000FFF807FFF8000000000000000000000053
:104870000000000000000000000000000000000038
:104880000000000000000000000000000000000028
:1048900000003E007C3F00FC3F81DC3B81DC3BC3F1
:1048A0009C39C39C38E71C38EF1C387E1C387C1EB2
:1048B000383C1E78001E78001E78001E78001E7896
:1048C000001E78001E000000000000000000000034
:1048D00000000000000000000000000000000000D8
:1048E00000000000000000000000000000000000C8
:1048F00000001F003C1F803C1FC03C1DC03C1DE051
:104900003C1CF03C1C783C1C783C1C3C3C1C1E3C79
:104910001C0F3C1C0F3C1C07BC1C03FC1C01FC1C9A
:1049200000FC1C00FC000000000000000000000073
:104930000000000000000000000000000000000077
:104940000000000000000000000000000000000067
:10495000000001FFC007FFF00F00F81E007C3C00C4
:104960003C3C001E78001E78001E78001E78001E59
:1049700078001E3C003C3C003C1E00781F00F00705
:10498000FFE001FF800000000000000000000000C8
:104990000000000000000000000000000000000017
:1049A0000000000000000000000000000000000007
:1049B00000001FFF801FFFF01E00F81E007C1E007D
:1049C0003C1E003C1E003C1E00781E03F01FFFC072
:1049D0001FFE001E00001E00001E00001E00001E24
:1049E00000001E00000000000000000000000000A9
:1049F00000000000000000000000000000000000B7
:104A000000000000000000000000000000000000A6
:104A1000000001FFC007FFF00F00F81E007C3C0003
:104A20003C3C001E78001E78001E78001E78001E98
:104A300078001E3C003C3C003C1E00781F80F007C4
:104A4000FFE001FF80003C00003C00001F06000F5B
:104A5000FF0001F80000000000000000000000005E
:104A60000000000000000000000000000000000046
:104A700000000FFF800FFFE00E01F00E00F00E00AF
:104A8000F00E00F00E01F00FFFC00FFF000E1F0030
:104A90000E07800E03C00E01E00E00F00E00F80EAF
:104AA00000780E003C000000000000000000000044
:104AB00000000000000000000000000000000000F6
:104AC00000000000000000000000000000000000E6
:104AD000000003FFF00FFFF01F00001E00001E008B
:104AE000001F00000FC00007FC0000FF80000FF057
:104AF0000001F80000780000780000782000F83FFE
:104B0000FFE03FFF80000000000000000000000008
:104B10000000000000000000000000000000000095
:104B20000000000000000000000000000000000085
:104B300000003FFFFC3FFFFC003C00003C00003C4D
:104B400000003C00003C00003C00003C00003C0039
:104B5000003C00003C00003C00003C00003C000029
:104B60003C00003C000000000000000000000000CD
:104B70000000000000000000000000000000000035
:104B80000000000000000000000000000000000025
:104B900000003C003C3C003C3C003C3C003C3C00F9
:104BA0003C3C003C3C003C3C003C3C003C3C003C71
:104BB0003C003C3C003C3C003C1E00781F00F80FD1
:104BC000FFE003FF80000000000000000000000084
:104BD00000000000000000000000000000000000D5
:104BE00000000000000000000000000000000000C5
:104BF0000000F8000F78001E3C001E3C003C1E0028
:104C0000381E00780F00700F00F00781E00781E088
:104C100003C3C003E3C001E78000F78000FF00008A
:104C20007E00007E00000000000000000000000088
:104C30000000000000000000000000000000000074
:104C40000000000000000000000000000000000064
:104C5000000078000E78000E78000E78001E3800F4
:104C60001E38001E383C1C383C1C387E1C387F1C0B
:104C70003CE71C3CE79C3DC39C1DC3DC1F81DC1F43
:104C800080F81F00F8000000000000000000000095
:104C90000000000000000000000000000000000014
:104CA0000000000000000000000000000000000004
:104CB00000003C003C1E00780F00F00781E003C3B9
:104CC000C001E78000FF00007E00007E0000FF00C2
:104CD00001FF8003E7C007C3E00F81F01F00F83E2B
:104CE000007C7C003E00000000000000000000008E
:104CF00000000000000000000000000000000000B4
:104D000000000000000000000000000000000000A3
:104D1000000078001F3C003E1E007C1F00780F80C2
:104D2000F007C1E003E3C001E78000FF00007E0060
:104D3000003C00003C00003C00003C00003C000047
:104D40003C00003C000000000000000000000000EB
:104D50000000000000000000000000000000000053
:104D60000000000000000000000000000000000043
:104D700000001FFFFC1FFFFC0000F80001E0000323
:104D8000C0000780000F00001E00003C00007800FB
:104D900000F00003E00007C0000F80001F00003F8C
:104DA000FFFC3FFFFC0000000000000000000000CE
:104DB00000000000000000000000000000000000F3
:104DC00000000000000000000000000001FFC00122
:104DD000FFC001E00001E00001E00001E00001E0AF
:104DE0000001E00001E00001E00001E00001E0005E
:104DF00001E00001E00001E00001E00001E000014D
:104E0000E00001E00001E00001E00001E00001E05D
:104E10000001FFC0000000000000000000000000D2
:104E20000000000000000000000000000E00000F65
:104E3000000007000003800003C00001E00000E064
:104E40000000F000007800003800003C00001E0068
:104E5000000E00000F000007800003800001C0006A
:104E600001E00000E000007000007800003C00005D
:104E70000000000000000000000000000000000032
:104E800000000000000000000000000003FF80039D
:104E9000FF80000780000780000780000780000770
:104EA00080000780000780000780000780000780DF
:104EB000000780000780000780000780000780004F
:104EC0000780000780000780000780000780000738
:104ED0008003FF80000000000000000000000000D0
:104EE00000000000000000000000000000000000C2
:104EF0000000003C00007E0000E70001C380038149
:104F0000C00700E00E00F01E007800000000000066
:104F10000000000000000000000000000000000091
:104F20000000000000000000000000000000000081
:104F30000000000000000000000000000000000071
:104F40000000000000000000000000000000000061
:104F50000000000000000000000000000000000051
:104F60000000000000000000000000000000000041
:104F70000000000000000000000000000000000031
:104F80000000000000000000000000000000FFFF23
:104F9000FFFFFFFF00000000000000000000000015
:104FA0000000000000000000000000000F8000036F
:104FB000E00000F800003C000000000000000000DD
:104FC00000000000000000000000000000000000E1
:104FD00000000000000000000000000000000000D1
:104FE00000000000000000000000000000000000C1
:104FF00000000000000000000000000000000000B1
:1050000000000000000000000000000000000000A0
:10501000000000000000000000000000000007FF8A
:10502000C007E7F00000F000007800007800FFF80B
:1050300007FFF80F00781E00781E00781E03F80F97
:10504000FFF807FC780000000000000000000000EE
:105050000000000000000000000000000000000050
:105060000000000000000000000000001E00001E04
:1050700000001E00001E00001E00001E00001E7F1B
:10508000E01EFFF01FC0781F00781E003C1E003C91
:105090001E003C1E003C1E00381E00781E00F01F43
:1050A000FFE007FF0000000000000000000000001B
:1050B00000000000000000000000000000000000F0
:1050C00000000000000000000000000000000000E0
:1050D000000000000000000000000000000000FFD1
:1050E000F003FFF007C0000F80000F00001E00005B
:1050F0001E00001E00000F00000F800007C000030C
:10510000FFF000FFF00000000000000000000000C1
:10511000000000000000000000000000000000008F
:105120000000000000000000000000000000780007
:10513000007800007800007800007800007801FF17
:10514000F807FFF80F00781E00781E00783C007802
:105150003C00783C00781C00781E01F81F03F80F13
:10516000FF7803FC78000000000000000000000051
:10517000000000000000000000000000000000002F
:10518000000000000000000000000000000000001F
:10519000000000000000000000000000000001FF0F
:1051A000C007E3F00F00F81E00781E003C1FFFFC54
:1051B0001FFFFC1C00001E00001E00000F800007E7
:1051C000FFF801FFF80000000000000000000000F0
:1051D00000000000000000000000000000000000CF
:1051E0000000000000000000000000000003FC00C0
:1051F0001FFE003E00007800007800007000007084
:10520000000070003FFFFC3FFFFC007000007000DA
:10521000007000007000007000007000007000005E
:10522000700000700000000000000000000000009E
:10523000000000000000000000000000000000006E
:10524000000000000000000000000000000000005E
:10525000000000000000000000000000000003FF4C
:10526000FC07C3FC0F00F01E00F01E00F00F00F062
:105270000F83E00FFFC01E7C001C00001F00000F0A
:10528000FFF00FFFFC1E003C3C003C3C003C1F813B
:10529000F80FFFE0003800000000000000000000F0
:1052A0000000000000000000000000001E00001EC2
:1052B00000001E00001E00001E00001E00001E7FD9
:1052C000E01EFFF01FC0F01F00781E00781E00785F
:1052D0001E00781E00781E00781E00781E00781EC2
:1052E00000781E00780000000000000000000000B0
:1052F00000000000000000000000000000000000AE
:10530000000000000000000000000000003C000061
:105310007E00007E00003C000000000000000FFE48
:10532000000FFE00001E00001E00001E00001E00F8
:10533000001E00001E00001E00001E00001E000FC8
:10534000FFF80FFFF8000000000000000000000060
:10535000000000000000000000000000000000004D
:1053600000000000000000000000000000038000BA
:1053700007E00007E00003800000000000000FFFCE
:10538000C00FFFC00003C00003C00003C00003C083
:105390000003C00003C00003C00003C00003C0003E
:1053A00003C00003C00003C00003C00007801E3F0D
:1053B000001FFE0001C0000000000000000000000F
:1053C0000000000000000000000000000F00000FBF
:1053D00000000F00000F00000F00000F00000F0082
:1053E000F80F01E00F07C00F1F000F3C000FF8007F
:1053F0000FF8000F3E000F1F000F07C00F03E00F54
:1054000000F80F007C000000000000000000000019
:10541000000000000000000000000000000000008C
:105420000000000000000000000000000FFE000F60
:10543000FE00001E00001E00001E00001E00001ED8
:1054400000001E00001E00001E00001E00001E00C6
:10545000001E00001E00001E00001E00001E000FA7
:10546000FFF80FFFF800000000000000000000003F
:10547000000000000000000000000000000000002C
:10548000000000000000000000000000000000001C
:10549000000000000000000000000000000039F9DA
:1054A000F83BBBBC3E3E1C3C3E1C383C1C383C1C04
:1054B000383C1C383C1C383C1C383C1C383C1C38E4
:1054C0003C1C383C1C0000000000000000000000F4
:1054D00000000000000000000000000000000000CC
:1054E00000000000000000000000000000000000BC
:1054F00000000000000000000000000000001E7F0F
:10550000E01EFFF01FC0F01F00781E00781E00781C
:105510001E00781E00781E00781E00781E00781E7F
:1055200000781E007800000000000000000000006D
:10553000000000000000000000000000000000006B
:10554000000000000000000000000000000000005B
:10555000000000000000000000000000000001FF4B
:10556000C007E7F00F00F81E003C3C003C3C003C4C
:105570003C003C3C003C3C003C1E00781F00F00717
:10558000FFE001FF800000000000000000000000BC
:10559000000000000000000000000000000000000B
:1055A00000000000000000000000000000000000FB
:1055B00000000000000000000000000000001E7F4E
:1055C000E01EFFF01FC0781F00781E003C1E003C4C
:1055D0001E003C1E003C1E00381E00781E00F01FFE
:1055E000FFE01FFF001E00001E00001E00001E0046
:1055F000001E00000000000000000000000000008D
:10560000000000000000000000000000000000009A
:10561000000000000000000000000000000001FF8A
:10562000F807F7F80F00781E00781E00783C007825
:105630003C00783C00781C00781E01F81F03F80F2E
:10564000FF7803FC78000078000078000078000004
:10565000780000780000000000000000000000005A
:10566000000000000000000000000000000000003A
:1056700000000000000000000000000000000F1FFC
:10568000F00F7FF80FE03C0F803C0F003C0F000054
:105690000F00000F00000F00000F00000F00000FB0
:1056A00000000F00000000000000000000000000EB
:1056B00000000000000000000000000000000000EA
:1056C00000000000000000000000000000000000DA
:1056D000000000000000000000000000000001FFCA
:1056E000E007E1E00F00000F000007800003FC006E
:1056F00000FFC0000FF00000F00000780000F00F85
:10570000FFE00FFF8000000000000000000000002C
:105710000000000000000000000000000000000089
:105720000000000000000000000000000000000079
:10573000000001E00001E00001E00001E0007FFF67
:10574000F87FFFF801E00001E00001E00001E00067
:1057500001E00001E00001E00001E00000F00000D5
:105760007FF8003FF800000000000000000000008B
:105770000000000000000000000000000000000029
:105780000000000000000000000000000000000019
:1057900000000000000000000000000000001E00EB
:1057A000781E00781E00781E00781E00781E007893
:1057B0001E00781E00781E00780E00F80F03F80710
:1057C000FF7803FC780000000000000000000000EB
:1057D00000000000000000000000000000000000C9
:1057E00000000000000000000000000000000000B9
:1057F00000000000000000000000000000003C006D
:105800003C1E007C1E00780F00F00F80F00781E046
:1058100003C3C003C3C001E78000E70000FF00002E
:105820007E00003C000000000000000000000000BE
:105830000000000000000000000000000000000068
:105840000000000000000000000000000000000058
:1058500000000000000000000000000000007800D0
:105860000E78001E78001E383C1E383C1C3C7E1C06
:105870003C7E3C1CE73C1CE7B81DC3B81FC3F80FB7
:1058800081F80F81F000000000000000000000001F
:105890000000000000000000000000000000000008
:1058A00000000000000000000000000000000000F8
:1058B00000000000000000000000000000001F00C9
:1058C0007C0F80F007C1E003E3C000F780007F0099
:1058D000003E0000FF0001E78003C3C00781F01F06
:1058E00000F83E007C000000000000000000000006
:1058F00000000000000000000000000000000000A8
:105900000000000000000000000000000000000097
:1059100000000000000000000000000000003C004B
:105920003C1E003C1E00780F00F00780F00781E06D
:1059300003C1C003C3C001E78000F78000FF00007F
:105940007E00003E00003C0000780001F0007FE097
:10595000007F800000000000000000000000000048
:105960000000000000000000000000000000000037
:1059700000000000000000000000000000000FFF19
:10598000F00FFFF00001E00007C0000F80001E00D4
:10599000003C0000F80001E00003C0000780000F99
:1059A000FFF80FFFF80000000000000000000000FA
:1059B00000000000000000000000000000000000E7
:1059C0000000000000000000000000000007E000F0
:1059D0001FE0003C0000380000380000780000782C
:1059E000000078000078000078001FF0001F8000A1
:1059F00001F00000780000780000780000780000D6
:105A00007800007800007800003800003C00001F9B
:105A100080000FE000000000000000000000000017
:105A2000000000003C00003C00003C00003C000086
:105A30003C00003C00003C00003C00003C00003CFE
:105A400000003C00003C00003C00003C00003C002A
:105A5000003C00003C00003C00003C00003C00001A
:105A60003C00003C00003C00003C00003C00003CCE
:105A700000003C00000000000000000000000000EA
:105A800000000000000000000000000007E0000728
:105A9000F800003C00001E00001E00001E00001E5A
:105AA00000001E00001E00000E00000FF80001F8AC
:105AB000000F80000E00001E00001E00001E0000EF
:105AC0001E00001E00001E00001E00003C0000FC26
:105AD0000007F000000000000000000000000000CF
